:02000000E52BEE
:10000800FF00030E83018316C6000A08C5008A0193
:1000180070088312A4007B08A3007C08A2007D0856
:10002800A1008B1C19288510B8238B100B1C5A288B
:10003800861E2F28061786130630FB001330FC0097
:10004800AD30FD00FD0B2628FC0B2628FB0B2628CF
:10005800000000003B28061386138230FC00DD30C8
:10006800FD00FD0B3528FC0B352800000000061E9E
:100078004E28061386170630FB001330FC00AD30FF
:10008800FD00FD0B4528FC0B4528FB0B452800000F
:1000980000005A28061386138230FC00DD30FD006C
:1000A800FD0B5428FC0B5428000000002408F00025
:1000B8002308FB002208FC002108FD0083164508E0
:0C00C8008A00460E8300FF0E7F0E090028
:1000D400103083120313FD00FD0B6E28000008008E
:1000E400083083120313FC002330FD00FD0B782835
:0600F400FC0B7828080057
:0400FA0000000800FA
:1000FE0083160313CF1B8628831288118828831238
:10010E00881583164F1B8E28831208119028831290
:10011E0008158316CF1A96288312881098288312F2
:10012E00881483164F1A9E2883120810A028831253
:10013E00081483164318A62883120816A8288312BB
:10014E00081288167D2088128316CF19B1288312C3
:10015E008811B3288312881583164F19B928831274
:10016E000811BB28831208158316CF18C1288312D5
:10017E008810C3288312881483164F18C928831237
:10018E000810CB288312081483164318D128831223
:10019E000816D3288312081288167D20881283161B
:0C01AE00431CDB287220DC286A200800BB
:0E01BA00F201F101F001F801F301003008003C
:1001C8007B15FB1FEE280130F300F201F101F0016D
:0801D800FA0DF20CFF300800E3
:0801E000FA1FF21300300800C1
:1001E800710DF80DF90D7408F8027508031C750FE8
:1001F800F902F00DF10D0F30FC00710DF80DF90D3D
:100208007408701C0D29F8027508031C750FF90293
:100218001229F80775080318750FF907F00DF10D85
:10022800FC0B012970181E297408F80775080318B3
:08023800750FF9070000080032
:0E024000831203136E088A006D088200080006
:0E024E00073083120313FD00FD0B2B2908005F
:10025C00FB14FB1F3829FF30F300F200F100F00013
:08026C00FA0DF20CFF3008004E
:10027400A0017208031D4F297108F2007008F100F3
:10028400F001A0157208031D4F297108F200F10155
:10029400A0112016720803195D292008F302031D1A
:1002A400031C61290310F21B6529F00DF10DF20DF9
:1002B400F30B552961290130FC00DD206829023047
:0E02C400FC00E42068290430FC00F020080053
:1002D2008316031343104E08CF007F208316431466
:0202E200080012
:1002E4007B14FB1F7D29F201FA1FFF30F200F1009D
:0A02F400F000FA0DF20CFF300800D4
:1002FE00831203137008F8007108F000F101F20187
:10030E00F301FB01FC019630F300FA01F01F952971
:10031E00F809F009F80A0319F00AFA177008F10043
:0C032E007808F000F801F2013A21080004
:10033A0083120313FB017308031D77080319F429B9
:10034A0072087606FA007708F3077E30031CB12993
:10035A00F3020318F729B429F302031CFA297208D5
:10036A00F8007108FC007008FD00F817F617031072
:10037A00F201F101F0011830A0007D1CCE297408A9
:10038A00F00775080318750FF10776080318760F3A
:10039A00F207F20CF10CF00CF80CFC0CFD0C03103B
:1003AA00A00BC229F21BDE29F80DF00DF10DF20D9A
:1003BA00F3037B1B701CF029F81FF029F00A0319BC
:1003CA00F10A0319F20A031DF029F20CF10CF00CE0
:1003DA00F30A0319F729FA1FF2130030FC29013036
:1003EA00DD20FC2902302E21FC290430E420000003
:0203FA000800F9
:1003FC00831203139F01C0309F046C09F000700836
:10040C0083169F051F179F174A08F000F00D7010F8
:10041C00F00D7010F00D7010700883129F041F14F3
:10042C0027211F151F1D1C2A0000182A1F101E082B
:10043C00F100F00183161E08F0040030F1040800EE
:10044C00831603178C1C2C2A0000262A03134A0837
:10045C00831203178D00831603134B0883120317A3
:10046C008C0083168C130C150B08F0008B13553075
:10047C008D00AA308D008C14F01B462A8B13472A52
:06048C008B170C110800A3
:1004920083120313FB0173080319862A7208FA00F8
:1004A200F2178E30F302F31F892AF309F30A083098
:1004B2007302031C6C2AF300F10D7208F100F201C1
:1004C20008307302031C6C2AF300F10DF10173086A
:1004D200031D0310742A73080319742A0310F20C03
:1004E200F10CF30B6F2A7B1B711C7E2A031C7E2AE4
:1004F200F10A0319F20AF21B952AFA1F982AF20945
:10050200F109F10A0319F20A982AF201F101982A73
:100512007B14FB1F9B2AF201FA1F9B2AFF30F20079
:10052200F100FA0DF20C9B2A0130FC009D2A0030EA
:10053200FC009D2AFF30FC00FC080319A12A72214D
:0A0542007108F0007208F1000800D3
:10054C0020218A110A128000840AED0A0319EE0A8E
:08055C00F003031DA62A0800AC
:10056400C42A803083160313CA00D72AC030CA00B5
:10057400D72A9430CA00D72AD430CA00D72A803068
:10058400CA00D72A831603134A08013A0319B32A67
:100594004A08023A0319B82A4A08033A0319BB2A3B
:1005A4004A08043A0319BE2AC12A4B03F0004A0838
:1005B400F0077008CA007008CF007F20831643102C
:1005C400CD014D084C07840000080319F12A4D0899
:1005D4004C0784000008CE006921CD0AE32A4314A5
:0205E40008000D
:1005E600831603134A08831203178D0083168C1390
:0A05F6000C1483120C08F00008003A
:10060000831203137408003A031D0F2B7508003A78
:10061000031D0F2BFF30F0007F30F100682B831299
:100620000313FD01F901F801710870040319003486
:1006300071087506FA00FA1BFD09FB01F51F252B51
:10064000F409F509F40A0319F50AF11F2C2BF00936
:10065000F109F00A0319F10A71087504FA00FA1B8E
:10066000412BF4207B18542BFD1F0034F009F109B5
:10067000F00A0319F10AF809F909F80A0319F90A45
:100680000034F51F502BF11B4C2B7108F90070083A
:10069000F800F101F001342BF101F001F00A00340F
:1006A000F109F009FB0A312BF80A0319F90A740859
:1006B0007802031D342B75087902031D342BF901D0
:1006C000F801F00A0319F10AF11F342B0000FF347E
:0206D000080020
:1006D2008316031388120812081088100811881153
:1006E20083128812081288110811881008107220CB
:1006F200722072208814081488167D2088127220B5
:1007020088167D208812722088167D208812722019
:10071200081088167D208812722088167D20881283
:100722008810881588167D20881272208811081476
:1007320088167D208812081088167D208812722063
:1007420088167D208812081488167D20881272204F
:10075200081088167D208812881508158814081438
:0E07620088167D20881272208316431408002A
:1007700083160313C401023044020318E22B8312D0
:10078000861406150330FB008A30FC005530FD004E
:10079000FD0BC82BFC0BC82BFB0BC82B000000006B
:1007A00086100330FB008A30FC005530FD00FD0B45
:1007B000D72BFC0BD72BFB0BD72B0000000083168D
:0A07C000C40ABB2B831206110800C7
:1007CA00BA250430831603139F0069230130CF0032
:1007DA007F200C308316CF007F208B170B168B15CA
:1007EA008316011739308600870183128610061195
:1007FA000613861301308316CF007F208230FC0057
:10080A00DD30FD00FD0B072CFC0B072C000000005F
:10081A0001308316CA000130CB002530CC00B22249
:10082A008230FC00DD30FD00FD0B192CFC0B192C6D
:10083A00000000000230CA000130CB003630CC0084
:10084A00B2220630FB001330FC00AD30FD00FD0B78
:10085A002C2CFC0B2C2CFB0B2C2C00000000C701B1
:10086A002030470203184E2C4708103ECA0047089A
:10087A00A03E84000008CB0026221A30FC00F83083
:10088A00FD00FD0B462CFC0B462C00000313C70A87
:10089A00352CCA01FE217008C1007108C2007F21EF
:1008AA00E330F4003630F5007A30F6007D30F70098
:1008BA009D21492270088316C8007108C90048089A
:1008CA00C1004908C2000A30F4000030F5004808A7
:1008DA00F0004908F10000237808F0007908F100D7
:1008EA007008EF0030307007C9000A30F400003099
:1008FA00F50083164808F0004908F1000023700843
:10090A008316C8007108C9004808C1004908C20016
:10091A000A30F4000030F5004808F0004908F100F8
:10092A0000237808F0007908F1007008EF003030F1
:10093A007007C8000A30F4000030F5008316480832
:10094A00F0004908F100002370088316C1007108FD
:10095A00C2000A30F4000030F50000237808F000E5
:10096A007908F1007008EF0030307007C700823054
:10097A00FC00DD30FD00FD0BC02CFC0BC02C000080
:10098A00000001308316CF007F2001308316CA0091
:10099A000130CB005830CC00B2221A30FC00F830BB
:1009AA00FD00FD0BD62CFC0BD62C00000230CA0031
:1009BA000130CB004730CC00B2220630FB001330A6
:1009CA00FC00AD30FD00FD0BE82CFC0BE82CFB0B0A
:1009DA00E82C00000000C7011030470203180D2D53
:1009EA0047086B3EC8004708103ECA00F322831628
:1009FA00031348088400700880001A30FC00F8309D
:100A0A00FD00FD0B062DFC0B062D0000C70AF12C7C
:100A1A000130CF007F2001308316CA000130CB009D
:100A2A006B30CC00B222C701103047020318352DB3
:100A3A0047086B3EC8004708203ECA00F3228316C7
:100A4A00031348088400700880001A30FC00F8304C
:100A5A00FD00FD0B2E2DFC0B2E2D0000C70A192DB3
:100A6A000230CA000130CB006B30CC00B222063013
:100A7A00FB001330FC00AD30FD00FD0B422DFC0BDA
:0E0A8A00422DFB0B422D000000004E2C4B2D88
:100B740025308400483083120313F0005130ED0017
:100B84000530EE00A622A030840021300313F000CB
:0C0B94009930ED000530EE00A6220800AC
:100AA20057346F3472346B346534643420342034F8
:100AB2002034203420342034203420342034203494
:020AC2000034FE
:100AC4007334753463346334653473347334663423
:100AD40075346C346C34793420342034203420342C
:020AE4000034DC
:100AE600303430343034203444346534673472342E
:100AF60065346534203420342034203420342034C6
:020B06000034B9
:100B0800543465346D3470346534723461347434FB
:100B18007534723465342034203420342034203441
:060B2800203420340034EB
:020B2E00003491
:020B30000F3480
:100B320045346234693478346134203431343034A9
:100B42006D346734203432342F344A342034203424
:100B5200413472346934633465347034743420340B
:100B6200313430346D346734203433342F344A34E2
:020B720000344D
:02400E007A3BFB
:00000001FF
