:02000000C12B12
:10000800FF00030E8301EB000A08E9008A0170086B
:10001800A4007B08A3007C08A2007D08A1008B1C1B
:100028001728851097238B100B1C5828861E2D28FF
:10003800061786130630FB001330FC00AD30FD00B8
:10004800FD0B2428FC0B2428FB0B242800000000AF
:100058003928061386138230FC00DD30FD00FD0BC5
:100068003328FC0B332800000000061E4C2806131A
:1000780086170630FB001330FC00AD30FD00FD0B89
:100088004328FC0B4328FB0B43280000000058289A
:10009800061386138230FC00DD30FD00FD0B52286C
:1000A800FC0B5228000000000B100B1D6E280130BD
:1000B800E702031CE80300306806031D65280030CA
:1000C8006706031D6E280130A8001E30E7000030C7
:1000D800E80081010B112408F0002308FB00220826
:1000E800FC002108FD0069088A006B0E8300FF0EE2
:0400F8007F0E09006E
:0400FC0000000800F8
:10010000083083120313FC002330FD00FD0B86280A
:06011000FC0B862808002C
:10011600103083120313FD00FD0B8F28000008002A
:1001260083160313C51B9A28831288119C288312F1
:1001360088158316451BA22883120811A42883124A
:1001460008158316C51AAA2883128810AC288312AC
:1001560088148316451AB22883120810B42883120D
:1001660008146A18B8280816B928081288167E20B6
:1001760088128316C519C22883128811C4288312CF
:10018600881583164519CA2883120811CC288312AC
:1001960008158316C518D22883128810D42883120E
:1001A600881483164518DA2883120810DC2883126F
:1001B60008146A18E0280816E128081288167E2016
:0E01C60088126A1CE8288020E9288B20080097
:1001D4007B15FB1FF4280130F300F201F101F0015B
:0801E400FA0DF20CFF300800D7
:0801EC00FA1FF21300300800B5
:0E01F400F201F101F001F801F3010030080002
:10020200831203136A106F088316C50093206A14C1
:020212000800E2
:100214001C29803083160313C2002F29C030C2006A
:100224002F299430C2002F29D430C2002F298030C6
:10023400C2002F29831603134208013A03190B291C
:100244004208023A031910294208033A03191329F0
:100254004208043A0319162919294303F0004208F5
:10026400F0077008C2007008C50093206A10EE0100
:100274006E08831644078400000803194C2983126E
:100284006E0883164407840000088312EF000121DE
:0A029400EE0A3A2983126A140800EA
:0E029E00073083120313FD00FD0B53290800E7
:1002AC007B14FB1F6129F201FA1FFF30F200F100F1
:0A02BC00F000FA0DF20CFF3008000C
:0E02C6008312031363088A0062088200080096
:1002D400A0017208031D7F297108F2007008F10063
:1002E400F001A0157208031D7F297108F200F101C5
:1002F400A0112016720803198D292008F302031D8A
:10030400031C91290310F21B9529F00DF10DF20D38
:10031400F30B852991290130FC00FA209829023039
:0E032400FC00EA2098290430FC00F6200800B6
:10033200831203136E0803178D0083168C130C149B
:0803420083120C08F000080012
:10034A00FB14FB1FAF29FF30F300F200F100F000AD
:08035A00FA0DF20CFF3008005F
:10036200831203139F01C0309F046009F0007008DC
:1003720083169F051F179F1783126C08F000F00D5C
:100382007010F00D7010F00D701070089F041F14A3
:100392004F211F151F1DCF290000CB291F101E083A
:1003A200F100F00183161E08F0040030F104080089
:1003B20083120313FB017308031D77080319302A04
:1003C20072087606FA007708F3077E30031CED29DF
:1003D200F3020318332AF029F302031C362A7208A7
:1003E200F8007108FC007008FD00F817F6170310FA
:1003F200F201F101F0011830A0007D1C0A2A7408F4
:10040200F00775080318750FF10776080318760FC1
:10041200F207F20CF10CF00CF80CFC0CFD0C0310C2
:10042200A00BFE29F21B1A2AF80DF00DF10DF20DA8
:10043200F3037B1B701C2C2AF81F2C2AF00A0319C9
:10044200F10A0319F20A031D2C2AF20CF10CF00C2A
:10045200F30A0319332AFA1FF2130030382A013043
:10046200FA20382A0230A521382A0430EA20000076
:02047200080080
:1004740083120313FB01FC01FA0173080319792A9F
:10048400F2178E30F302F31B4A2A03194A2A7C2AF4
:10049400F309F30A08307302031C5F2AF300F10D19
:1004A4007208F100F20108307302031C5F2AF10D97
:1004B400F1017308031D0310672A73080319672ADF
:1004C4000310F20CF10CF30B622A7B1B711C712AD2
:1004D400031C712AF10A0319F20AF21B882AFA1F73
:1004E4008B2AF209F109F10A0319F20A8B2AF201A3
:1004F400F1018B2A7B14FB1F8E2AF201FA1F8E2A2C
:10050400FF30F200F100FA0DF20C8E2A0130FC00EB
:10051400902A0030FC00902AFF30FC00FC080319EC
:0E052400942A56217108F0007208F1000800B8
:1005320083120313F801F9011030FC00710DF80D5C
:10054200F90D7408F8027508031C750FF9020318F7
:10055200B12A7408F80775080318750FF907031014
:0A056200F00DF10DFC0B9F2A0800BC
:10056C00831203137008F8007108F000F101F20116
:10057C00F301FB01FC019630F300FA017008F10065
:0C058C007808F000F801F2016A21080074
:1005980063218A110A128000840AE20A0319E30A15
:0805A800F003031DCC2A08003A
:1005B0008316031388120812081088100811881176
:1005C00083128812081288110811881008108020E0
:1005D000802080208814081488167E2088128020AD
:1005E00088167E208812802088167E20881280201F
:1005F000081088167E208812802088167E20881297
:100600008810881588167E2088128020881108148A
:1006100088167E208812081088167E208812802076
:1006200088167E208812081488167E208812802062
:10063000081088167E20881288150815881408145A
:0C06400088167E20881280206A140800B2
:10064C00831603178C1C2C2B0000262B83120313F0
:10065C006C0803178D0003136D0803178C008316A9
:10066C008C130C150B08F0008B1355308D00AA3031
:10067C008D008C14F01B442B8B13452B8B170C11FA
:02068C00080064
:10068E00831203130714E101103061020318662B65
:10069E006108253EEC006108103EEE00992103131F
:1006AE006C088400700880001A30FC00F830FD00E1
:1006BE00FD0B5F2BFC0B5F2B0000E10A4B2B013077
:1006CE008316C500932001308316C2000130C3008B
:1006DE002530C4000A21E1011030610203188E2B6F
:1006EE006108253EEC006108203EEE0099210313BF
:1006FE006C088400700880001A30FC00F830FD0091
:10070E00FD0B872BFC0B872B0000E10A732B0230AD
:10071E008316C2000130C3002530C4000A21080030
:10072E0083120313E601023066020318BF2B8614F0
:10073E0006150330FB008A30FC005530FD00FD0B22
:10074E00A62BFC0BA62BFB0BA62B00000000861085
:10075E000330FB008A30FC005530FD00FD0BB52B3D
:10076E00FC0BB52BFB0BB52B00000000E60A9A2BF9
:04077E000611080058
:100782008C25DF3083120313A600043083169F00EA
:10079200D82201308316C50093200C308316C50081
:1007A20093208B170B168B158B168101073083163E
:1007B20081001E308312E7000030E8008316011723
:1007C20039308600870187018312861006110613CD
:1007D2008613870101308316C50093208230FC0006
:1007E200DD30FD00FD0BF32BFC0BF32B00000000B2
:1007F20001308316C2000130C300B130C4000A21A7
:100802008230FC00DD30FD00FD0B052CFC0B052CBD
:100812000000000002308316C2000130C300A03085
:10082200C4000A210230FB008630FC009930FD0032
:10083200FD0B192CFC0B192CFB0B192CE1012030A0
:10084200610203183A2C6108103EEC006108293E4F
:1008520084000008ED0026231A30FC00F830FD0069
:10086200FD0B312CFC0B312C000083120313E10A27
:10087200202C2808013A031D642C4723EC01B121E6
:10088200B6223530F4005E30F5007A30F6007D3065
:10089200F700D9213A227008E4007108E50002301D
:1008A200FB008630FC009930FD00FD0B562CFC0B42
:1008B200562CFB0B562C071001308316C5009320D3
:1008C200A8010130DF006508003C031D6A2C6408A2
:1008D200633C03186F2C3130D700712C2030D700C5
:1008E2000A30F4000030F5006408F0006508F100F9
:1008F20099220A30F4000030F50099227808F000BD
:100902007908F10030307007D8000A30F400003066
:10091200F5006408F0006508F10099227808F000FB
:100922007908F10030307007D900DF30DC00013087
:100932008316C500932001308316C2000330C30022
:100942004A30C4000A211A30FC00F830FD00FD0BC9
:10095200A82CFC0BA82C000002308316C200053024
:10096200C3005730C4000A211A30FC00F830FD00E1
:10097200FD0BB92CFC0BB92C000000306502031DE5
:10098200C42C013064020318EB2CE601033066022A
:100992000318EB2C87150230FB004530FC00A93010
:1009A200FD00FD0BD22CFC0BD22CFB0BD22C000039
:1009B200000087110230FB004530FC00A930FD0029
:1009C200FD0BE12CFC0BE12CFB0BE12C00000000E9
:1009D200E60AC72C5F08013A031D262D6508003C74
:1009E200031DF52C6408273C0318072D87140330D8
:1009F200FB000830FC007730FD00FD0BFE2CFC0BE9
:100A0200FE2CFB0BFE2C8710DF01262D6508003C17
:100A1200031D0D2D6408273C031C262D6508003C90
:100A2200031D152D6408013C0318262D07150330FC
:100A3200FB000830FC007730FD00FD0B1E2DFC0B87
:0E0A42001E2DFB0B1E2D0711DF013A2C272D58
:100B1800253084003C3083120313F0002D30E200AE
:100B28000530E300CC22A03084002230F000693088
:0A0B3800E2000530E300CC220800C3
:020A5A00003466
:040A5C00203400340E
:020A6000003460
:100A6200453462346934783461342034313430347A
:100A72006D346734203432342F344A3420342034F5
:100A820041347234693463346534703474342034DC
:100A9200313430346D346734203433342F344A34B3
:020AA20000341E
:100AA400543465346D347034653472346134743460
:0A0AB4007534723465343A340034AE
:100ABE002034303430342E34303420344334003447
:020ACE000034F2
:020AD0000F34E1
:100AD2007334753463346334653473347334663415
:100AE20075346C346C34793420342034203420341E
:020AF2000034CE
:100AF40057346F3472346B346534643420342034A6
:100B04002034203420342034203420342034203441
:020B14000034AB
:02400E007A3BFB
:00000001FF
