:02000000982B3B
:10000800FF00030E8301C6000A08C5008A017008B4
:10001800A4007B08A3007C08A2007D08A1008B1C1B
:100028001728851064238B100B1C5828861E2D2832
:10003800061786130630FB001330FC00AD30FD00B8
:10004800FD0B2428FC0B2428FB0B242800000000AF
:100058003928061386138230FC00DD30FD00FD0BC5
:100068003328FC0B332800000000061E4C2806131A
:1000780086170630FB001330FC00AD30FD00FD0B89
:100088004328FC0B4328FB0B43280000000058289A
:10009800061386138230FC00DD30FD00FD0B52286C
:1000A800FC0B5228000000002408F0002308FB0085
:1000B8002208FC002108FD0045088A00460E83003E
:0600C800FF0E7F0E09008F
:1000CE00103083120313FD00FD0B6B280000080097
:1000DE00083083120313FC002330FD00FD0B75283E
:0600EE00FC0B7528080060
:0400F4000000080000
:0E00F800F201F101F001F801F30100300800FF
:1001060083120313CE1B892888118A2888154E1B53
:100116008E2808118F280815CE1A9328881094283F
:1001260088144E1A982808109928081441189D28F2
:1001360008169E28081288167A208812CE19A52835
:100146008811A62888154E19AA280811AB28081563
:10015600CE18AF288810B02888144E18B428081076
:10016600B52808144118B9280816BA28081288169E
:100176007A208812411CC1286F20C22867200800F7
:08018600FA1FF213003008001B
:10018E007B15FB1FD1280130F300F201F101F001C4
:08019E00FA0DF20CFF3008001D
:0E01A600073083120313FD00FD0BD72808005D
:1001B4008312031341104D08CE008320411408001C
:0E01C400831203133E088A003D0882000800E3
:1001D200710DF80DF90D7408F8027508031C750FFE
:1001E200F902F00DF10D0F30FC00710DF80DF90D53
:1001F2007408701C0229F8027508031C750FF902B5
:100202000729F80775080318750FF907F00DF10DA6
:10021200FC0BF628701813297408F80775080318E0
:08022200750FF9070000080048
:10022A00A0017208031D2A297108F2007008F10062
:10023A00F001A0157208031D2A297108F200F101C4
:10024A00A01120167208031938292008F302031D89
:10025A00031C3C290310F21B4029F00DF10DF20D8D
:10026A00F30B30293C290130FC007C204329023061
:0E027A00FC00C72043290430FC00C32008000C
:10028800FB14FB1F4E29FF30F300F200F100F000D1
:08029800FA0DF20CFF30080022
:1002A0007B14FB1F5B29F201FA1FFF30F200F10003
:0A02B000F000FA0DF20CFF30080018
:1002BA0083120313FB017308031D77080319B4297A
:1002CA0072087606FA007708F3077E30031C712954
:1002DA00F3020318B7297429F302031CBA29720816
:1002EA00F8007108FC007008FD00F817F6170310F3
:1002FA00F201F101F0011830A0007D1C8E2974086A
:10030A00F00775080318750FF10776080318760FBA
:10031A00F207F20CF10CF00CF80CFC0CFD0C0310BB
:10032A00A00B8229F21B9E29F80DF00DF10DF20D9A
:10033A00F3037B1B701CB029F81FB029F00A0319BC
:10034A00F10A0319F20A031DB029F20CF10CF00CA0
:10035A00F30A0319B729FA1FF2130030BC29013036
:10036A007C20BC2902304421BC290430C72000006B
:02037A00080079
:10037C00831203139F01C0309F042509F0007008FD
:10038C0083169F051F179F1783124908F000F00D65
:10039C007010F00D7010F00D701070089F041F1489
:1003AC00D3201F151F1DDC290000D8291F101E0883
:1003BC00F100F00183161E08F0040030F10408006F
:1003CC0083120313FB0173080319232A7208FA0022
:1003DC00F2178E30F302F31F262AF309F30A0830C2
:1003EC007302031C092AF300F10D7208F100F201EB
:1003FC0008307302031C092AF300F10DF101730894
:10040C00031D0310112A73080319112A0310F20C8F
:10041C00F10CF30B0C2A7B1B711C1B2A031C1B2AD3
:10042C00F10A0319F20AF21B322AFA1F352AF209D1
:10043C00F109F10A0319F20A352AF201F101352A00
:10044C007B14FB1F382AF201FA1F382AFF30F20006
:10045C00F100FA0DF20C382A0130FC003A2A003077
:10046C00FC003A2AFF30FC00FC0803193E2A5021FC
:0A047C007108F0007208F10008009A
:10048600831203137408003A031D522A7508003AB2
:10049600031D522AFF30F0007F30F100AB2A831291
:1004A6000313FD01F901F801710870040319003402
:1004B60071087506FA00FA1BFD09FB01F51F682A8B
:1004C600F409F509F40A0319F50AF11F6F2AF00970
:1004D600F109F00A0319F10A71087504FA00FA1B0A
:1004E600842AE9207B18972AFD1F0034F009F109B8
:1004F600F00A0319F10AF809F909F80A0319F90AC1
:100506000034F51F932AF11B8F2A7108F900700831
:10051600F800F101F001772AF101F001F00A003448
:10052600F109F009FB0A742AF80A0319F90A740892
:100536007802031D772A75087902031D772AF901C7
:10054600F801F00A0319F10AF11F772A0000FF34B7
:0205560008009B
:1005580083160313881208120810881008118811CE
:1005680083128812081288110811881008106F2049
:100578006F206F208814081488167A2088126F203C
:1005880088167A2088126F2088167A2088126F20A1
:10059800081088167A2088126F2088167A20881208
:1005A8008810881588167A2088126F2088110814F8
:1005B80088167A208812081088167A2088126F20E8
:1005C80088167A208812081488167A2088126F20D4
:1005D800081088167A2088128815081588140814B7
:0C05E80088167A2088126F204114080049
:1005F4000C2B803083120313C9001F2BC030C90099
:100604001F2B9430C9001F2BD430C9001F2B8030FE
:10061400C9001F2B831203134908013A0319FB2A4B
:100624004908023A0319002B4908033A0319032B1A
:100634004908043A0319062B092B4A03F000490818
:10064400F0077008C9007008CE0083204110CC0167
:100654004C084B07840000080319382B4C084B073F
:1006640084000008CD00DA20CC0A2A2B41140800AB
:10067400831203137008F8007108F000F101F2010D
:10068400F301FB01FC019630F300FA01F01F502B3B
:10069400F809F009F80A0319F00AFA177008F100CA
:0C06A4007808F000F801F20115210800B0
:1006B000E2208A110A128000840ABD0A0319BE0AC8
:0806C000F003031D582B080094
:1006C80083120313BF01C00180304006F000803060
:1006D8007002031D712B02303F020318962B8614FB
:1006E80006150330FB008A30FC005530FD00FD0B79
:1006F8007B2BFC0B7B2BFB0B7B2B0000000086105D
:100708000330FB008A30FC005530FD00FD0B8A2BBE
:10071800FC0B8A2BFB0B8A2B00000000BF0A031975
:08072800C00A682B061108004D
:1007300054240430831603139F00AC220C30CE00E7
:1007400083208B170B168B15831601173930860003
:10075000831286100611061386130130CE00832003
:100760000130C9000130CA002630CB00FA22C9018D
:10077000BE2170088312C2007108C3003A23E3301F
:10078000F4003630F5007A30F6007D30F7005D2158
:10079000E6217008C7007108C8004708C200480871
:1007A000C3000A30F4000030F5004708F0004808A4
:1007B000F10043227808F0007908F1007008C400C5
:1007C00030307007B4000A30F4000030F5004708FC
:1007D000F0004808F10043227008C7007108C80003
:1007E0004708C2004808C3000A30F4000030F50092
:1007F0004708F0004808F10043227808F000790823
:10080000F1007008C40030307007B3000A30F40003
:100810000030F5004708F0004808F1004322700856
:10082000C2007108C3000A30F4000030F500432212
:100830007808F0007908F1007008C40030307007C3
:10084000B2000230C9000130CA003230CB00FA22B7
:100850000230FB000430FC00BA30FD00FD0B2E2CF2
:0E086000FC0B2E2CFB0B2E2C0000AD2B362C8F
:1008A80025308400183083120313F0003C30BD005B
:0808B8000430BE0058230800C3
:020878000F343B
:10087A00543465346D34703465347234613474348C
:08088A0075347234653400344A
:100892003034303430342034443465346734723484
:0608A200653465340034EA
:02400E007A3BFB
:00000001FF
