:02000000FB2BD8
:10000800FF00030E83018316C9000A08C7008A018E
:1000180070088312A4007B08A3007C08A2007D0856
:10002800A1008B1C19288510CE238B100B1C5A2875
:10003800861E2F28061786130630FB001330FC0097
:10004800AD30FD00FD0B2628FC0B2628FB0B2628CF
:10005800000000003B28061386138230FC00DD30C8
:10006800FD00FD0B3528FC0B352800000000061E9E
:100078004E28061386170630FB001330FC00AD30FF
:10008800FD00FD0B4528FC0B4528FB0B452800000F
:1000980000005A28061386138230FC00DD30FD006C
:1000A800FD0B5428FC0B5428000000000B100B1DFE
:1000B800752801308316C102031CC20300304206B2
:1000C800031D682800304106031D7428013083127F
:1000D80087061E308316C1000030C20083128101DA
:1000E8000B1183122408F0002308FB002208FC00EF
:1000F8002108FD00831647088A00490E8300FF0E79
:040108007F0E09005D
:10010C00103083120313FD00FD0B8A280000080039
:10011C00083083120313FC002330FD00FD0B9428E0
:06012C00FC0B9428080002
:0401320000000800C1
:1001360083160313D11BA22883128811A4288312C5
:1001460088158316511BAA2883120811AC2883121E
:1001560008158316D11AB22883128810B428831280
:1001660088148316511ABA2883120810BC288312E1
:1001760008146F18C0280816C12808128816992076
:1001860088128316D119CA2883128811CC288312A3
:10019600881583165119D22883120811D428831280
:1001A60008158316D118DA2883128810DC288312E2
:1001B600881483165118E22883120810E428831243
:1001C60008146F18E8280816E928081288169920D6
:0E01D60088126F1CF0288E20F1288620080069
:0E01E400F201F101F001F801F3010030080012
:1001F2007B15FB1F03290130F300F201F101F0012D
:08020200FA0DF20CFF300800B8
:08020A00FA1FF2130030080096
:10021200710DF80DF90D7408F8027508031C750FBD
:10022200F902F00DF10D0F30FC00710DF80DF90D12
:100232007408701C2229F8027508031C750FF90254
:100242002729F80775080318750FF907F00DF10D46
:10025200FC0B1629701833297408F807750803185F
:08026200750FF9070000080008
:0E026A00831203136E088A006D0882000800DC
:0E027800073083120313FD00FD0B4029080020
:10028600FB14FB1F4D29FF30F300F200F100F000D4
:08029600FA0DF20CFF30080024
:10029E00A0017208031D64297108F2007008F100B4
:1002AE00F001A0157208031D64297108F200F10116
:1002BE00A01120167208031972292008F302031DDB
:1002CE00031C76290310F21B7A29F00DF10DF20DA5
:1002DE00F30B6A2976290130FC00F2207D290230C9
:0E02EE00FC00F9207D290430FC0005210800E9
:1002FC00831203136F1083165008D1009B206F14C8
:02030C000800E7
:10030E007B14FB1F9229F201FA1FFF30F200F1005D
:0A031E00F000FA0DF20CFF300800A9
:10032800831203137008F8007108F000F101F2015C
:10033800F301FB01FC019630F300FA01F01FAA2932
:10034800F809F009F80A0319F00AFA177008F10019
:0C0358007808F000F801F2014F210800C5
:1003640083120313FB017308031D77080319092A79
:1003740072087606FA007708F3077E30031CC62954
:10038400F30203180C2AC929F302031C0F2A72086A
:10039400F8007108FC007008FD00F817F617031048
:1003A400F201F101F0011830A0007D1CE32974086A
:1003B400F00775080318750FF10776080318760F10
:1003C400F207F20CF10CF00CF80CFC0CFD0C031011
:1003D400A00BD729F21BF329F80DF00DF10DF20D46
:1003E400F3037B1B701C052AF81F052AF00A031966
:1003F400F10A0319F20A031D052AF20CF10CF00CA0
:10040400F30A03190C2AFA1FF2130030112A0130DF
:10041400F220112A02304321112A0430F92000006D
:020424000800CE
:10042600831203139F01C0309F045B09F00070081C
:1004360083169F051F179F174C08F000F00D7010CC
:10044600F00D7010F00D7010700883129F041F14C9
:100456003C211F151F1D312A00002D2A1F101E08C2
:10046600F100F00183161E08F0040030F1040800C4
:10047600831603178C1C412A00003B2A03134C08E1
:10048600831203178D00831603134D088312031777
:100496008C0083168C130C150B08F0008B1355304B
:1004A6008D00AA308D008C14F01B5B2A8B135C2AFE
:0604B6008B170C11080079
:1004BC0083120313FB01730803199B2A7208FA00B9
:1004CC00F2178E30F302F31F9E2AF309F30A083059
:1004DC007302031C812AF300F10D7208F100F20182
:1004EC0008307302031C812AF300F10DF10173082B
:1004FC00031D0310892A73080319892A0310F20CAF
:10050C00F10CF30B842A7B1B711C932A031C932A7A
:10051C00F10A0319F20AF21BAA2AFA1FAD2AF209F0
:10052C00F109F10A0319F20AAD2AF201F101AD2A1F
:10053C007B14FB1FB02AF201FA1FB02AFF30F20025
:10054C00F100FA0DF20CB02A0130FC00B22A003096
:10055C00FC00B22AFF30FC00FC080319B62A8721E4
:0A056C007108F0007208F1000800A9
:1005760035218A110A128000840AED0A0319EE0A4F
:08058600F003031DBB2A08006D
:10058E00D92A803083160313CC00EC2AC030CC005D
:10059E00EC2A9430CC00EC2AD430CC00EC2A8030FB
:1005AE00CC00EC2A831603134C08013A0319C82A0F
:1005BE004C08023A0319CD2A4C08033A0319D02AE3
:1005CE004C08043A0319D32AD62A4D03F0004C08DE
:1005DE00F0077008CC007008D1009B206F108316B6
:1005EE00CF014F084E07840000080319072B4F0850
:1005FE004E0784000008D0007E218316CF0AF82A09
:06060E0083126F140800C6
:10061400831603134C08831203178D0083168C135F
:0A0624000C1483120C08F00008000B
:10062E00831203137408003A031D262B7508003A33
:10063E00031D262BFF30F0007F30F1007F2B83123D
:10064E000313FD01F901F801710870040319003458
:10065E0071087506FA00FA1BFD09FB01F51F3C2B0C
:10066E00F409F509F40A0319F50AF11F432BF009F1
:10067E00F109F00A0319F10A71087504FA00FA1B60
:10068E00582B09217B186B2BFD1F0034F009F10943
:10069E00F00A0319F10AF809F909F80A0319F90A17
:1006AE000034F51F672BF11B632B7108F9007008DE
:1006BE00F800F101F0014B2BF101F001F00A0034CA
:1006CE00F109F009FB0A482BF80A0319F90A740814
:1006DE007802031D4B2B75087902031D4B2BF90174
:1006EE00F801F00A0319F10AF11F4B2B0000FF3439
:0206FE000800F2
:100700008316031388120812081088100811881124
:1007100083128812081288110811881008108E2080
:100720008E208E20881408148816992088128E2016
:100730008816992088128E208816992088128E207B
:1007400008108816992088128E2088169920881201
:10075000881088158816992088128E208811081410
:1007600088169920881208108816992088128E20E1
:1007700088169920881208148816992088128E20CD
:1007800008108816992088128815081588140814EE
:0C0790008816992088128E206F14080033
:10079C0083160313C801023048020318F82B831286
:1007AC00861406150330FB008A30FC005530FD0022
:1007BC00FD0BDE2BFC0BDE2BFB0BDE2B00000000FD
:1007CC0086100330FB008A30FC005530FD00FD0B19
:1007DC00ED2BFC0BED2BFB0BED2B0000000083161F
:0A07EC00C80AD12B83120611080081
:1007F600E8250430831603139F00802301308316F7
:10080600D1009B200C308316D1009B208B170B1632
:100816008B158B1681010730831681001E30C100AF
:100826000030C20001173930860087018701831224
:100836008610061106138613870101308316D10030
:100846009B208230FC00DD30FD00FD0B282CFC0BCC
:10085600282C0000000001308316CC000130CD00AA
:100866002530CE00C7228230FC00DD30FD00FD0BB6
:100876003A2CFC0B3A2C0000000002308316CC0008
:100886000130CD005C30CE00C7220630FB001330AD
:10089600FC00AD30FD00FD0B4E2CFC0B4E2CFB0B73
:1008A6004E2C000000008316C401203044020318B9
:1008B600712C4408103ECC004408A03E8400000879
:1008C600CD003B221A30FC00F830FD00FD0B692CF0
:1008D600FC0B692C00000313C40A582C8316CC01A8
:1008E60013227008C5007108C6009421E330F40095
:1008F6003630F5007A30F6007D30F700B2215E2200
:1009060070088316CA007108CB004A08C5004B0858
:10091600C6000A30F4000030F5004A08F0004B0823
:10092600F10017237808F0007908F10070088316A3
:10093600C300303070078312CB000A30F400003059
:10094600F50083164A08F0004B08F10017237008DB
:100956008316CA007108CB004A08C5004B08C600BA
:100966000A30F4000030F5004A08F0004B08F100A8
:1009760017237808F0007908F10070088316C30081
:10098600303070078312CA000A30F4000030F500D8
:1009960083164A08F0004B08F100172370088316E7
:1009A600C5007108C6000A30F4000030F5001723B0
:1009B6007808F0007908F10070088316C30030301B
:1009C60070078312C9008230FC00DD30FD00FD0B8C
:1009D600EA2CFC0BEA2C0000000001308316D10043
:1009E6009B2001308316CC000130CD003630CE007E
:1009F600C7221A30FC00F830FD00FD0B002DFC0B61
:100A0600002D000002308316CC000130CD004930A5
:100A1600CE00C7220630FB001330FC00AD30FD00CF
:100A2600FD0B132DFC0B132DFB0B132D00000000EB
:100A36008316C401103044020318392D44085A3E67
:100A4600CA004408103ECC000A23831603134A0842
:100A56008400700880001A30FC00F830FD00FD0BA1
:100A6600322DFC0B322D0000C40A1D2D0130D100A1
:100A76009B2001308316CC000130CD005A30CE00C9
:100A8600C7228316C401103044020318622D44089D
:100A96005A3ECA004408203ECC000A23831603139C
:100AA6004A088400700880001A30FC00F830FD0007
:100AB600FD0B5B2DFC0B5B2D0000C40A462D02309E
:100AC600CC000130CD005A30CE00C7220630FB00E4
:100AD6001330FC00AD30FD00FD0B6F2DFC0B6F2DB0
:0C0AE600FB0B6F2D00000000712C782D20
:100BD00025308400483083120313F0007E30ED008E
:100BE0000530EE00BB22A0308400213083120313B5
:0E0BF000F000C630ED000530EE00BB2208001C
:100AFC0057346F3472346B3465346434203420349E
:100B0C002034203420342034203420342034203439
:020B1C000034A3
:100B1E00543465346D3470346534723461347434E5
:100B2E00753472346534203420342034203420342B
:060B3E00203420340034D5
:100B440030343034303420344434653467347234CF
:100B54006534653420342034203420342034203467
:020B640000345B
:020B6600003459
:020B68000F3448
:100B6A00733475346334633465347334733466347C
:100B7A0075346C346C347934203420342034203485
:020B8A00003435
:100B8C00453462346934783461342034313430344F
:100B9C006D346734203432342F344A3420342034CA
:100BAC0041347234693463346534703474342034B1
:100BBC00313430346D346734203433342F344A3488
:020BCC000034F3
:02400E007A3BFB
:00000001FF
