:02000000852B4E
:10000800FF00030E8301EC000A08ED008A01700866
:10001800A4007B08A3007C08A2007D08A1008B1C1B
:10002800172885105B238B100B1C5828861E2D283B
:10003800061786130630FB001330FC00AD30FD00B8
:10004800FD0B2428FC0B2428FB0B242800000000AF
:100058003928061386138230FC00DD30FD00FD0BC5
:100068003328FC0B332800000000061E4C2806131A
:1000780086170630FB001330FC00AD30FD00FD0B89
:100088004328FC0B4328FB0B43280000000058289A
:10009800061386138230FC00DD30FD00FD0B52286C
:1000A800FC0B5228000000000B100B1D6E280130BD
:1000B800E302031CE40300306406031D65280030D6
:1000C8006306031D6E280130E2001F30E300003094
:1000D800E40081010B112408F0002308FB0022082A
:1000E800FC002108FD006D088A006C0E8300FF0EDD
:0400F8007F0E09006E
:0400FC0000000800F8
:10010000083083120313FC002330FD00FD0B86280A
:06011000FC0B862808002C
:10011600103083120313FD00FD0B8F28000008002A
:1001260083160313C81B9A28831288119C288312EE
:1001360088158316481BA22883120811A428831247
:1001460008158316C81AAA2883128810AC288312A9
:1001560088148316481AB22883120810B42883120A
:1001660008146718B8280816B928081288167E20B9
:1001760088128316C819C22883128811C4288312CC
:10018600881583164819CA2883120811CC288312A9
:1001960008158316C818D22883128810D42883120B
:1001A600881483164818DA2883120810DC2883126C
:1001B60008146718E0280816E128081288167E2019
:0E01C6008812671CE8288020E9288B2008009A
:1001D40083120313671083164708C800932067141B
:0201E400080011
:0801E600FA1FF21300300800BB
:1001EE007B15FB1F01290130F300F201F101F00133
:0801FE00FA0DF20CFF300800BD
:0E020600F201F101F001F801F30100300800EF
:10021400A0017208031D1F297108F2007008F10083
:10022400F001A0157208031D1F297108F200F101E5
:10023400A0112016720803192D292008F302031DAA
:10024400031C31290310F21B3529F00DF10DF20DB9
:10025400F30B252931290130FC0003213829023010
:0E026400FC00F72038290430FC00F3200800CD
:100272004B29803083160313C3005E29C030C300AC
:100282005E299430C3005E29D430C3005E298030D9
:10029200C3005E29831603134308013A03193A295E
:1002A2004308023A03193F294308033A0319422932
:1002B2004308043A0319452948294403F000430836
:1002C200F0077008C3007008C800932067108316F7
:1002D200C601460845078400000803197929460823
:1002E200450784000008C700EA208316C60A6A2967
:0602F200831267140800EE
:0E02F800073083120313FD00FD0B8029080060
:10030600FB14FB1F8D29FF30F300F200F100F00013
:08031600FA0DF20CFF300800A3
:10031E007B14FB1F9A29F201FA1FFF30F200F10045
:0A032E00F000FA0DF20CFF30080099
:0E0338008312031366088A006508820008001D
:1003460083120313FB017308031D77080319FA29A7
:1003560072087606FA007708F3077E30031CB72981
:10036600F3020318FD29BA29F302031C002A7208B6
:10037600F8007108FC007008FD00F817F617031066
:10038600F201F101F0011830A0007D1CD429740897
:10039600F00775080318750FF10776080318760F2E
:1003A600F207F20CF10CF00CF80CFC0CFD0C03102F
:1003B600A00BC829F21BE429F80DF00DF10DF20D82
:1003C600F3037B1B701CF629F81FF629F00A0319A4
:1003D600F10A0319F20A031DF629F20CF10CF00CCE
:1003E600F30A0319FD29FA1FF2130030022A01301D
:1003F6000321022A02308321022A0430F72000005A
:020406000800EC
:10040800831203137008F8007108F000F101F2017B
:10041800F301FB01FC019630F300FA017008F100CA
:0C0428007808F000F801F2010A21080039
:10043400831203139F01C0309F045009F000700819
:1004440083169F051F179F1783126F08F000F00D86
:100454007010F00D7010F00D701070089F041F14D0
:100464007C211F151F1D382A0000342A1F101E0866
:10047400F100F00183161E08F0040030F1040800B6
:1004840083120313FB01FC01FA0173080319812A87
:10049400F2178E30F302F31B522A0319522A842ACC
:1004A400F309F30A08307302031C672AF300F10D01
:1004B4007208F100F20108307302031C672AF10D7F
:1004C400F1017308031D03106F2A730803196F2ABF
:1004D4000310F20CF10CF30B6A2A7B1B711C792AB2
:1004E400031C792AF10A0319F20AF21B902AFA1F53
:1004F400932AF209F109F10A0319F20A932AF20183
:10050400F101932A7B14FB1F962AF201FA1F962A03
:10051400FF30F200F100FA0DF20C962A0130FC00D3
:10052400982A0030FC00982AFF30FC00FC080319CC
:0E0534009C2A8F217108F0007208F100080067
:1005420083120313F801F9011030FC00710DF80D4C
:10055200F90D7408F8027508031C750FF9020318E7
:10056200B92A7408F80775080318750FF9070310FC
:0A057200F00DF10DFC0BA72A0800A4
:10057C0083160313881208120810881008118811AA
:10058C008312881208128811081188100810802014
:10059C00802080208814081488167E2088128020E1
:1005AC0088167E208812802088167E208812802053
:1005BC00081088167E208812802088167E208812CB
:1005CC008810881588167E208812802088110814BF
:1005DC0088167E208812081088167E2088128020AB
:1005EC0088167E208812081488167E208812802097
:1005FC00081088167E20881288150815881408148F
:0C060C0088167E208812802067140800E9
:100618009C218A110A128000840AE50A0319E60A55
:08062800F003031D0C2B080078
:10063000831603178C1C1E2B0000182B0313410874
:10064000831203178D0083160313420883120317C6
:100650008C0083168C130C150B08F0008B1355308F
:100660008D00AA308D008C14F01B382B8B13392B86
:060670008B170C110800BD
:1006760083120313071401308316C3000130C4002C
:100686002830C500392102308316C3000130C4006A
:080696002730C50039210800DE
:10069E00831203136F0803178D0083168C130C142B
:0806AE0083120C08F0000800A3
:1006B60083120313E801023068020318832B8614A1
:1006C60006150330FB008A30FC005530FD00FD0B9B
:1006D6006A2BFC0B6A2BFB0B6A2B000000008610B2
:1006E6000330FB008A30FC005530FD00FD0B792BF2
:1006F600FC0B792BFB0B792B00000000E80A5E2B24
:0407060006110800D0
:10070A009825DF3083120313A500043083169F0057
:10071A00BE2201308316C80093200C308316C8000D
:10072A0093208B170B168B158B16810107308316B6
:10073A0081001F308312E3000030E40083160117A2
:10074A003930860087018701831286100611061345
:10075A008613870101308316C80093208230FC007B
:10076A00DD30FD00FD0BB72BFC0BB72B00000000A2
:10077A0001308316C3000130C4002930C500392175
:10078A008230FC00DD30FD00FD0BC92BFC0BC92BB0
:10079A000000000002308316C3000130C40051304B
:1007AA00C50039210230FB008630FC009930FD007B
:1007BA00FD0BDD2BFC0BDD2BFB0BDD2BE9012030C8
:1007CA0069020318012C6908103E8316C1008312BE
:1007DA006908A03E840000088316C20018231A3054
:1007EA00FC00F830FD00FD0BF82BFC0BF82B000089
:1007FA0083120313E90AE42BE90110306902031892
:10080A001D2C6908283EEE006908103EEF004F23B0
:10081A0003136E088400700880001A30FC00F83058
:10082A00FD00FD0B162CFC0B162C0000E90A022C0D
:10083A00E901103069020318392C6908273EEE00D5
:10084A006908203EEF004F2303136E0884007008E6
:10085A0080001A30FC00F830FD00FD0B322CFC0B36
:10086A00322C0000E90A1E2C6208013A031D692C89
:10087A0001308316C80093203B230430FB000C3060
:10088A00FC003330FD00FD0B482CFC0B482CFB0B05
:10089A00482C00000000EF011A2204223530F4002F
:1008AA005E30F5007A30F6007D30F700A32142224F
:1008BA007008EA007108EB00071001308316C800BF
:1008CA009320E2010130CF006B08003C031D6F2C1E
:1008DA006A08633C0318742C3130C700762C203028
:1008EA00C7000A30F4000030F5006A08F0006B080F
:1008FA00F100A1220A30F4000030F500A1227808A4
:10090A00F0007908F10030307007C8000A30F400AE
:10091A000030F5006A08F0006B08F100A12278089F
:10092A00F0007908F10030307007C900DF30CC00E0
:10093A0001308316C800932001308316C3000330A8
:10094A00C4003A30C50039211A30FC00F830FD00E5
:10095A00FD0BAD2CFC0BAD2C000002308316C3003E
:10096A000530C4004730C50039210430FB000C3083
:10097A00FC003330FD00FD0BC02CFC0BC02CFB0B24
:10098A00C02C0000000000306B02031DCE2C013089
:10099A006A020318F52CE801033068020318F52CE3
:1009AA0087150230FB004530FC00A930FD00FD0B25
:1009BA00DC2CFC0BDC2CFB0BDC2C00000000871170
:1009CA000230FB004530FC00A930FD00FD0BEB2C8A
:1009DA00FC0BEB2CFB0BEB2C00000000E80AD12CE3
:1009EA004F08013A031D322D6B08003C031DFF2CF2
:1009FA006A08273C0318132D87140330FB008A303A
:100A0A00FC005530FD00FD0B082DFC0B082DFB0BDF
:100A1A00082D000000008710CF01322D6B08003C22
:100A2A00031D192D6A08273C031C322D6B08003C54
:100A3A00031D212D6A08013C0318322D07150330C6
:100A4A00FB000830FC007730FD00FD0B2A2DFC0B63
:0E0A5A002A2DFB0B2A2D0711CF01392C332D2D
:100B3000253084003E3083120313F0003930E50085
:100B40000530E6000C23A03084002130F00077301F
:0A0B5000E5000530E6000C23080064
:040A720020340034F8
:020A760000344A
:020A7800003448
:100A7A0057346F3472346B34653464342034203420
:100A8A0020342034203420342034203420342034BC
:020A9A00003426
:100A9C00543465346D347034653472346134743468
:0A0AAC007534723465343A340034B6
:100AB6002034303430342E3430342034433400344F
:020AC6000034FA
:020AC8000F34E9
:100ACA00733475346334633465347334733466341D
:100ADA0075346C346C347934203420342034203426
:020AEA000034D6
:020AEC000034D4
:100AEE0045346234693478346134203431343034EE
:100AFE006D346734203432342F344A342034203469
:100B0E00413472346934633465347034743420344F
:100B1E00313430346D346734203433342F344A3426
:020B2E00003491
:02400E007A3BFB
:00000001FF
